{"abi":[{"type":"constructor","inputs":[],"stateMutability":"nonpayable"},{"type":"function","name":"approve","inputs":[{"name":"to","type":"address","internalType":"address"},{"name":"tokenId","type":"uint256","internalType":"uint256"}],"outputs":[],"stateMutability":"nonpayable"},{"type":"function","name":"balanceOf","inputs":[{"name":"owner","type":"address","internalType":"address"}],"outputs":[{"name":"","type":"uint256","internalType":"uint256"}],"stateMutability":"view"},{"type":"function","name":"getAgentWallet","inputs":[{"name":"agentId","type":"uint256","internalType":"uint256"}],"outputs":[{"name":"","type":"address","internalType":"address"}],"stateMutability":"view"},{"type":"function","name":"getApproved","inputs":[{"name":"tokenId","type":"uint256","internalType":"uint256"}],"outputs":[{"name":"","type":"address","internalType":"address"}],"stateMutability":"view"},{"type":"function","name":"getMetadata","inputs":[{"name":"agentId","type":"uint256","internalType":"uint256"},{"name":"metadataKey","type":"string","internalType":"string"}],"outputs":[{"name":"","type":"bytes","internalType":"bytes"}],"stateMutability":"view"},{"type":"function","name":"isApprovedForAll","inputs":[{"name":"owner","type":"address","internalType":"address"},{"name":"operator","type":"address","internalType":"address"}],"outputs":[{"name":"","type":"bool","internalType":"bool"}],"stateMutability":"view"},{"type":"function","name":"name","inputs":[],"outputs":[{"name":"","type":"string","internalType":"string"}],"stateMutability":"view"},{"type":"function","name":"ownerOf","inputs":[{"name":"tokenId","type":"uint256","internalType":"uint256"}],"outputs":[{"name":"","type":"address","internalType":"address"}],"stateMutability":"view"},{"type":"function","name":"register","inputs":[{"name":"agentURI","type":"string","internalType":"string"},{"name":"metadata","type":"tuple[]","internalType":"struct EIP8004Registry.MetadataEntry[]","components":[{"name":"metadataKey","type":"string","internalType":"string"},{"name":"metadataValue","type":"bytes","internalType":"bytes"}]}],"outputs":[{"name":"","type":"uint256","internalType":"uint256"}],"stateMutability":"nonpayable"},{"type":"function","name":"register","inputs":[{"name":"agentURI","type":"string","internalType":"string"}],"outputs":[{"name":"","type":"uint256","internalType":"uint256"}],"stateMutability":"nonpayable"},{"type":"function","name":"safeTransferFrom","inputs":[{"name":"from","type":"address","internalType":"address"},{"name":"to","type":"address","internalType":"address"},{"name":"tokenId","type":"uint256","internalType":"uint256"}],"outputs":[],"stateMutability":"nonpayable"},{"type":"function","name":"safeTransferFrom","inputs":[{"name":"from","type":"address","internalType":"address"},{"name":"to","type":"address","internalType":"address"},{"name":"tokenId","type":"uint256","internalType":"uint256"},{"name":"data","type":"bytes","internalType":"bytes"}],"outputs":[],"stateMutability":"nonpayable"},{"type":"function","name":"setAgentURI","inputs":[{"name":"agentId","type":"uint256","internalType":"uint256"},{"name":"newURI","type":"string","internalType":"string"}],"outputs":[],"stateMutability":"nonpayable"},{"type":"function","name":"setAgentWallet","inputs":[{"name":"agentId","type":"uint256","internalType":"uint256"},{"name":"newWallet","type":"address","internalType":"address"}],"outputs":[],"stateMutability":"nonpayable"},{"type":"function","name":"setApprovalForAll","inputs":[{"name":"operator","type":"address","internalType":"address"},{"name":"approved","type":"bool","internalType":"bool"}],"outputs":[],"stateMutability":"nonpayable"},{"type":"function","name":"setMetadata","inputs":[{"name":"agentId","type":"uint256","internalType":"uint256"},{"name":"metadataKey","type":"string","internalType":"string"},{"name":"metadataValue","type":"bytes","internalType":"bytes"}],"outputs":[],"stateMutability":"nonpayable"},{"type":"function","name":"supportsInterface","inputs":[{"name":"interfaceId","type":"bytes4","internalType":"bytes4"}],"outputs":[{"name":"","type":"bool","internalType":"bool"}],"stateMutability":"view"},{"type":"function","name":"symbol","inputs":[],"outputs":[{"name":"","type":"string","internalType":"string"}],"stateMutability":"view"},{"type":"function","name":"tokenURI","inputs":[{"name":"tokenId","type":"uint256","internalType":"uint256"}],"outputs":[{"name":"","type":"string","internalType":"string"}],"stateMutability":"view"},{"type":"function","name":"transferFrom","inputs":[{"name":"from","type":"address","internalType":"address"},{"name":"to","type":"address","internalType":"address"},{"name":"tokenId","type":"uint256","internalType":"uint256"}],"outputs":[],"stateMutability":"nonpayable"},{"type":"event","name":"AgentWalletSet","inputs":[{"name":"agentId","type":"uint256","indexed":true,"internalType":"uint256"},{"name":"newWallet","type":"address","indexed":true,"internalType":"address"}],"anonymous":false},{"type":"event","name":"Approval","inputs":[{"name":"owner","type":"address","indexed":true,"internalType":"address"},{"name":"approved","type":"address","indexed":true,"internalType":"address"},{"name":"tokenId","type":"uint256","indexed":true,"internalType":"uint256"}],"anonymous":false},{"type":"event","name":"ApprovalForAll","inputs":[{"name":"owner","type":"address","indexed":true,"internalType":"address"},{"name":"operator","type":"address","indexed":true,"internalType":"address"},{"name":"approved","type":"bool","indexed":false,"internalType":"bool"}],"anonymous":false},{"type":"event","name":"BatchMetadataUpdate","inputs":[{"name":"_fromTokenId","type":"uint256","indexed":false,"internalType":"uint256"},{"name":"_toTokenId","type":"uint256","indexed":false,"internalType":"uint256"}],"anonymous":false},{"type":"event","name":"MetadataSet","inputs":[{"name":"agentId","type":"uint256","indexed":true,"internalType":"uint256"},{"name":"indexedMetadataKey","type":"string","indexed":true,"internalType":"string"},{"name":"metadataKey","type":"string","indexed":false,"internalType":"string"},{"name":"metadataValue","type":"bytes","indexed":false,"internalType":"bytes"}],"anonymous":false},{"type":"event","name":"MetadataUpdate","inputs":[{"name":"_tokenId","type":"uint256","indexed":false,"internalType":"uint256"}],"anonymous":false},{"type":"event","name":"Registered","inputs":[{"name":"agentId","type":"uint256","indexed":true,"internalType":"uint256"},{"name":"agentURI","type":"string","indexed":false,"internalType":"string"},{"name":"owner","type":"address","indexed":true,"internalType":"address"}],"anonymous":false},{"type":"event","name":"Transfer","inputs":[{"name":"from","type":"address","indexed":true,"internalType":"address"},{"name":"to","type":"address","indexed":true,"internalType":"address"},{"name":"tokenId","type":"uint256","indexed":true,"internalType":"uint256"}],"anonymous":false},{"type":"event","name":"URIUpdated","inputs":[{"name":"agentId","type":"uint256","indexed":true,"internalType":"uint256"},{"name":"newURI","type":"string","indexed":false,"internalType":"string"},{"name":"updatedBy","type":"address","indexed":true,"internalType":"address"}],"anonymous":false},{"type":"error","name":"ERC721IncorrectOwner","inputs":[{"name":"sender","type":"address","internalType":"address"},{"name":"tokenId","type":"uint256","internalType":"uint256"},{"name":"owner","type":"address","internalType":"address"}]},{"type":"error","name":"ERC721InsufficientApproval","inputs":[{"name":"operator","type":"address","internalType":"address"},{"name":"tokenId","type":"uint256","internalType":"uint256"}]},{"type":"error","name":"ERC721InvalidApprover","inputs":[{"name":"approver","type":"address","internalType":"address"}]},{"type":"error","name":"ERC721InvalidOperator","inputs":[{"name":"operator","type":"address","internalType":"address"}]},{"type":"error","name":"ERC721InvalidOwner","inputs":[{"name":"owner","type":"address","internalType":"address"}]},{"type":"error","name":"ERC721InvalidReceiver","inputs":[{"name":"receiver","type":"address","internalType":"address"}]},{"type":"error","name":"ERC721InvalidSender","inputs":[{"name":"sender","type":"address","internalType":"address"}]},{"type":"error","name":"ERC721NonexistentToken","inputs":[{"name":"tokenId","type":"uint256","internalType":"uint256"}]}],"bytecode":{"object":"0x60806040526001600755348015610014575f5ffd5b506040518060400160405280600f81526020017f4d6f6e6164204149204167656e747300000000000000000000000000000000008152506040518060400160405280600581526020017f4147454e54000000000000000000000000000000000000000000000000000000815250815f908161008f91906102f5565b50806001908161009f91906102f5565b5050506103c4565b5f81519050919050565b7f4e487b71000000000000000000000000000000000000000000000000000000005f52604160045260245ffd5b7f4e487b71000000000000000000000000000000000000000000000000000000005f52602260045260245ffd5b5f600282049050600182168061012257607f821691505b602082108103610135576101346100de565b5b50919050565b5f819050815f5260205f209050919050565b5f6020601f8301049050919050565b5f82821b905092915050565b5f600883026101977fffffffffffffffffffffffffffffffffffffffffffffffffffffffffffffffff8261015c565b6101a1868361015c565b95508019841693508086168417925050509392505050565b5f819050919050565b5f819050919050565b5f6101e56101e06101db846101b9565b6101c2565b6101b9565b9050919050565b5f819050919050565b6101fe836101cb565b61021261020a826101ec565b848454610168565b825550505050565b5f5f905090565b61022961021a565b6102348184846101f5565b505050565b5f5b8281101561025a5761024f5f828401610221565b60018101905061023b565b505050565b601f8211156102ad57828211156102ac576102798161013b565b6102828361014d565b61028b8561014d565b6020861015610298575f90505b8083016102a782840382610239565b505050505b5b505050565b5f82821c905092915050565b5f6102cd5f19846008026102b2565b1980831691505092915050565b5f6102e583836102be565b9150826002028217905092915050565b6102fe826100a7565b67ffffffffffffffff811115610317576103166100b1565b5b610321825461010b565b61032c82828561025f565b5f60209050601f83116001811461035d575f841561034b578287015190505b61035585826102da565b8655506103bc565b601f19841661036b8661013b565b5f5b828110156103925784890151825560018201915060208501945060208101905061036d565b868310156103af57848901516103ab601f8916826102be565b8355505b6001600288020188555050505b505050505050565b613386806103d15f395ff3fe608060405234801561000f575f5ffd5b5060043610610129575f3560e01c8063636d2f64116100ab578063b88d4fde1161006f578063b88d4fde1461034d578063c87b56dd14610369578063cb4799f214610399578063e985e9c5146103c9578063f2c298be146103f957610129565b8063636d2f641461029757806370a08231146102b35780638ea42286146102e357806395d89b4114610313578063a22cb4651461033157610129565b80630af28bd3116100f25780630af28bd3146101f757806323b872dd1461021357806342842e0e1461022f578063466648da1461024b5780636352211e1461026757610129565b80623395091461012d57806301ffc9a71461015d57806306fdde031461018d578063081812fc146101ab578063095ea7b3146101db575b5f5ffd5b61014760048036038101906101429190612196565b610429565b6040516101549190612200565b60405180910390f35b6101776004803603810190610172919061226e565b610462565b60405161018491906122b3565b60405180910390f35b6101956104c2565b6040516101a2919061233c565b60405180910390f35b6101c560048036038101906101c09190612196565b610551565b6040516101d29190612200565b60405180910390f35b6101f560048036038101906101f09190612386565b61056c565b005b610211600480360381019061020c9190612425565b610582565b005b61022d60048036038101906102289190612482565b61069b565b005b61024960048036038101906102449190612482565b61079a565b005b61026560048036038101906102609190612527565b6107b9565b005b610281600480360381019061027c9190612196565b61095c565b60405161028e9190612200565b60405180910390f35b6102b160048036038101906102ac91906125b8565b61096d565b005b6102cd60048036038101906102c891906125f6565b610a7a565b6040516102da9190612630565b60405180910390f35b6102fd60048036038101906102f8919061269e565b610b30565b60405161030a9190612630565b60405180910390f35b61031b610d5f565b604051610328919061233c565b60405180910390f35b61034b60048036038101906103469190612746565b610def565b005b610367600480360381019061036291906128ac565b610e05565b005b610383600480360381019061037e9190612196565b610e2a565b604051610390919061233c565b60405180910390f35b6103b360048036038101906103ae9190612425565b610ea6565b6040516103c0919061297e565b60405180910390f35b6103e360048036038101906103de919061299e565b610f67565b6040516103f091906122b3565b60405180910390f35b610413600480360381019061040e91906129dc565b610ff5565b6040516104209190612630565b60405180910390f35b5f60095f8381526020019081526020015f205f9054906101000a900473ffffffffffffffffffffffffffffffffffffffff169050919050565b5f634906490660e01b7bffffffffffffffffffffffffffffffffffffffffffffffffffffffff1916827bffffffffffffffffffffffffffffffffffffffffffffffffffffffff191614806104bb57506104ba82611110565b5b9050919050565b60605f80546104d090612a54565b80601f01602080910402602001604051908101604052809291908181526020018280546104fc90612a54565b80156105475780601f1061051e57610100808354040283529160200191610547565b820191905f5260205f20905b81548152906001019060200180831161052a57829003601f168201915b5050505050905090565b5f61055b826111f1565b5061056582611277565b9050919050565b61057e82826105796112b0565b6112b7565b5050565b3373ffffffffffffffffffffffffffffffffffffffff166105a28461095c565b73ffffffffffffffffffffffffffffffffffffffff16146105f8576040517f08c379a00000000000000000000000000000000000000000000000000000000081526004016105ef90612ace565b60405180910390fd5b6106458383838080601f0160208091040260200160405190810160405280939291908181526020018383808284375f81840152601f19601f820116905080830192505050505050506112c9565b3373ffffffffffffffffffffffffffffffffffffffff16837f3a2c7fffc2cba7582c690e3b82c453ea02a308326a98a3ad7576c606336409fb848460405161068e929190612b18565b60405180910390a3505050565b5f73ffffffffffffffffffffffffffffffffffffffff168273ffffffffffffffffffffffffffffffffffffffff160361070b575f6040517f64a0ae920000000000000000000000000000000000000000000000000000000081526004016107029190612200565b60405180910390fd5b5f61071e83836107196112b0565b611323565b90508373ffffffffffffffffffffffffffffffffffffffff168173ffffffffffffffffffffffffffffffffffffffff1614610794578382826040517f64283d7b00000000000000000000000000000000000000000000000000000000815260040161078b93929190612b3a565b60405180910390fd5b50505050565b6107b483838360405180602001604052805f815250610e05565b505050565b3373ffffffffffffffffffffffffffffffffffffffff166107d98661095c565b73ffffffffffffffffffffffffffffffffffffffff161461082f576040517f08c379a000000000000000000000000000000000000000000000000000000000815260040161082690612ace565b60405180910390fd5b6040518060400160405280600b81526020017f6167656e7457616c6c657400000000000000000000000000000000000000000081525080519060200120848460405161087c929190612b9d565b6040518091039020036108c4576040517f08c379a00000000000000000000000000000000000000000000000000000000081526004016108bb90612c25565b60405180910390fd5b6109558585858080601f0160208091040260200160405190810160405280939291908181526020018383808284375f81840152601f19601f8201169050808301925050505050505084848080601f0160208091040260200160405190810160405280939291908181526020018383808284375f81840152601f19601f8201169050808301925050505050505061152e565b5050505050565b5f610966826111f1565b9050919050565b3373ffffffffffffffffffffffffffffffffffffffff1661098d8361095c565b73ffffffffffffffffffffffffffffffffffffffff16146109e3576040517f08c379a00000000000000000000000000000000000000000000000000000000081526004016109da90612ace565b60405180910390fd5b8060095f8481526020019081526020015f205f6101000a81548173ffffffffffffffffffffffffffffffffffffffff021916908373ffffffffffffffffffffffffffffffffffffffff1602179055508073ffffffffffffffffffffffffffffffffffffffff16827fc1b62bacf2a2f4363c2190e00f2370f3b563001a0c56c73eae69619e58e9624c60405160405180910390a35050565b5f5f73ffffffffffffffffffffffffffffffffffffffff168273ffffffffffffffffffffffffffffffffffffffff1603610aeb575f6040517f89c62b64000000000000000000000000000000000000000000000000000000008152600401610ae29190612200565b60405180910390fd5b60035f8373ffffffffffffffffffffffffffffffffffffffff1673ffffffffffffffffffffffffffffffffffffffff1681526020019081526020015f20549050919050565b5f5f60075f815480929190610b4490612c70565b919050559050610b5433826115be565b610ba18187878080601f0160208091040260200160405190810160405280939291908181526020018383808284375f81840152601f19601f820116905080830192505050505050506112c9565b3360095f8381526020019081526020015f205f6101000a81548173ffffffffffffffffffffffffffffffffffffffff021916908373ffffffffffffffffffffffffffffffffffffffff1602179055503373ffffffffffffffffffffffffffffffffffffffff16817fca52e62c367d81bb2e328eb795f7c7ba24afb478408a26c0e201d155c449bc4a8888604051610c39929190612b18565b60405180910390a35f5f90505b84849050811015610d5257610d4582868684818110610c6857610c67612cb7565b5b9050602002810190610c7a9190612cf0565b805f0190610c889190612d17565b8080601f0160208091040260200160405190810160405280939291908181526020018383808284375f81840152601f19601f82011690508083019250505050505050878785818110610cdd57610cdc612cb7565b5b9050602002810190610cef9190612cf0565b8060200190610cfe9190612d79565b8080601f0160208091040260200160405190810160405280939291908181526020018383808284375f81840152601f19601f8201169050808301925050505050505061152e565b8080600101915050610c46565b5080915050949350505050565b606060018054610d6e90612a54565b80601f0160208091040260200160405190810160405280929190818152602001828054610d9a90612a54565b8015610de55780601f10610dbc57610100808354040283529160200191610de5565b820191905f5260205f20905b815481529060010190602001808311610dc857829003601f168201915b5050505050905090565b610e01610dfa6112b0565b83836116b1565b5050565b610e1084848461069b565b610e24610e1b6112b0565b8585858561188a565b50505050565b6060610e35826111f1565b505f610e3f611a36565b90505f610e4b84611a4c565b90505f825103610e5f578092505050610ea1565b5f81511115610e93578181604051602001610e7b929190612e15565b60405160208183030381529060405292505050610ea1565b610e9c84611aed565b925050505b919050565b606060085f8581526020019081526020015f208383604051610ec9929190612e5c565b90815260200160405180910390208054610ee290612a54565b80601f0160208091040260200160405190810160405280929190818152602001828054610f0e90612a54565b8015610f595780601f10610f3057610100808354040283529160200191610f59565b820191905f5260205f20905b815481529060010190602001808311610f3c57829003601f168201915b505050505090509392505050565b5f60055f8473ffffffffffffffffffffffffffffffffffffffff1673ffffffffffffffffffffffffffffffffffffffff1681526020019081526020015f205f8373ffffffffffffffffffffffffffffffffffffffff1673ffffffffffffffffffffffffffffffffffffffff1681526020019081526020015f205f9054906101000a900460ff16905092915050565b5f5f60075f81548092919061100990612c70565b91905055905061101933826115be565b6110668185858080601f0160208091040260200160405190810160405280939291908181526020018383808284375f81840152601f19601f820116905080830192505050505050506112c9565b3360095f8381526020019081526020015f205f6101000a81548173ffffffffffffffffffffffffffffffffffffffff021916908373ffffffffffffffffffffffffffffffffffffffff1602179055503373ffffffffffffffffffffffffffffffffffffffff16817fca52e62c367d81bb2e328eb795f7c7ba24afb478408a26c0e201d155c449bc4a86866040516110fe929190612b18565b60405180910390a38091505092915050565b5f7f80ac58cd000000000000000000000000000000000000000000000000000000007bffffffffffffffffffffffffffffffffffffffffffffffffffffffff1916827bffffffffffffffffffffffffffffffffffffffffffffffffffffffff191614806111da57507f5b5e139f000000000000000000000000000000000000000000000000000000007bffffffffffffffffffffffffffffffffffffffffffffffffffffffff1916827bffffffffffffffffffffffffffffffffffffffffffffffffffffffff1916145b806111ea57506111e982611b53565b5b9050919050565b5f5f6111fc83611bbc565b90505f73ffffffffffffffffffffffffffffffffffffffff168173ffffffffffffffffffffffffffffffffffffffff160361126e57826040517f7e2732890000000000000000000000000000000000000000000000000000000081526004016112659190612630565b60405180910390fd5b80915050919050565b5f60045f8381526020019081526020015f205f9054906101000a900473ffffffffffffffffffffffffffffffffffffffff169050919050565b5f33905090565b6112c48383836001611bf5565b505050565b8060065f8481526020019081526020015f2090816112e79190613025565b507ff8e1a15aba9398e019f0b49df1a4fde98ee17ae345cb5f6b5e2c27f5033e8ce7826040516113179190612630565b60405180910390a15050565b5f5f61132e84611bbc565b90505f73ffffffffffffffffffffffffffffffffffffffff168373ffffffffffffffffffffffffffffffffffffffff161461136f5761136e818486611db4565b5b5f73ffffffffffffffffffffffffffffffffffffffff168173ffffffffffffffffffffffffffffffffffffffff16146113fa576113ae5f855f5f611bf5565b600160035f8373ffffffffffffffffffffffffffffffffffffffff1673ffffffffffffffffffffffffffffffffffffffff1681526020019081526020015f205f82825403925050819055505b5f73ffffffffffffffffffffffffffffffffffffffff168573ffffffffffffffffffffffffffffffffffffffff161461147957600160035f8773ffffffffffffffffffffffffffffffffffffffff1673ffffffffffffffffffffffffffffffffffffffff1681526020019081526020015f205f82825401925050819055505b8460025f8681526020019081526020015f205f6101000a81548173ffffffffffffffffffffffffffffffffffffffff021916908373ffffffffffffffffffffffffffffffffffffffff160217905550838573ffffffffffffffffffffffffffffffffffffffff168273ffffffffffffffffffffffffffffffffffffffff167fddf252ad1be2c89b69c2b068fc378daa952ba7f163c4a11628f55a4df523b3ef60405160405180910390a4809150509392505050565b8060085f8581526020019081526020015f208360405161154e91906130f4565b90815260200160405180910390209081611568919061316f565b508160405161157791906130f4565b6040518091039020837f2c149ed548c6d2993cd73efe187df6eccabe4538091b33adbd25fafdb8a1468b84846040516115b192919061323e565b60405180910390a3505050565b5f73ffffffffffffffffffffffffffffffffffffffff168273ffffffffffffffffffffffffffffffffffffffff160361162e575f6040517f64a0ae920000000000000000000000000000000000000000000000000000000081526004016116259190612200565b60405180910390fd5b5f61163a83835f611323565b90505f73ffffffffffffffffffffffffffffffffffffffff168173ffffffffffffffffffffffffffffffffffffffff16146116ac575f6040517f73c6ac6e0000000000000000000000000000000000000000000000000000000081526004016116a39190612200565b60405180910390fd5b505050565b5f73ffffffffffffffffffffffffffffffffffffffff168373ffffffffffffffffffffffffffffffffffffffff1603611721575f6040517fa9fbf51f0000000000000000000000000000000000000000000000000000000081526004016117189190612200565b60405180910390fd5b5f73ffffffffffffffffffffffffffffffffffffffff168273ffffffffffffffffffffffffffffffffffffffff160361179157816040517f5b08ba180000000000000000000000000000000000000000000000000000000081526004016117889190612200565b60405180910390fd5b8060055f8573ffffffffffffffffffffffffffffffffffffffff1673ffffffffffffffffffffffffffffffffffffffff1681526020019081526020015f205f8473ffffffffffffffffffffffffffffffffffffffff1673ffffffffffffffffffffffffffffffffffffffff1681526020019081526020015f205f6101000a81548160ff0219169083151502179055508173ffffffffffffffffffffffffffffffffffffffff168373ffffffffffffffffffffffffffffffffffffffff167f17307eab39ab6107e8899845ad3d59bd9653f200f220920489ca2b5937696c318360405161187d91906122b3565b60405180910390a3505050565b5f8373ffffffffffffffffffffffffffffffffffffffff163b1115611a2f578273ffffffffffffffffffffffffffffffffffffffff1663150b7a02868685856040518563ffffffff1660e01b81526004016118e89493929190613273565b6020604051808303815f875af192505050801561192357506040513d601f19601f8201168201806040525081019061192091906132d1565b60015b6119a4573d805f8114611951576040519150601f19603f3d011682016040523d82523d5f602084013e611956565b606091505b505f81510361199c57836040517f64a0ae920000000000000000000000000000000000000000000000000000000081526004016119939190612200565b60405180910390fd5b805160208201fd5b63150b7a0260e01b7bffffffffffffffffffffffffffffffffffffffffffffffffffffffff1916817bffffffffffffffffffffffffffffffffffffffffffffffffffffffff191614611a2d57836040517f64a0ae92000000000000000000000000000000000000000000000000000000008152600401611a249190612200565b60405180910390fd5b505b5050505050565b606060405180602001604052805f815250905090565b606060065f8381526020019081526020015f208054611a6a90612a54565b80601f0160208091040260200160405190810160405280929190818152602001828054611a9690612a54565b8015611ae15780601f10611ab857610100808354040283529160200191611ae1565b820191905f5260205f20905b815481529060010190602001808311611ac457829003601f168201915b50505050509050919050565b6060611af8826111f1565b505f611b02611a36565b90505f815111611b205760405180602001604052805f815250611b4b565b80611b2a84611e77565b604051602001611b3b929190612e15565b6040516020818303038152906040525b915050919050565b5f7f01ffc9a7000000000000000000000000000000000000000000000000000000007bffffffffffffffffffffffffffffffffffffffffffffffffffffffff1916827bffffffffffffffffffffffffffffffffffffffffffffffffffffffff1916149050919050565b5f60025f8381526020019081526020015f205f9054906101000a900473ffffffffffffffffffffffffffffffffffffffff169050919050565b8080611c2d57505f73ffffffffffffffffffffffffffffffffffffffff168273ffffffffffffffffffffffffffffffffffffffff1614155b15611d5f575f611c3c846111f1565b90505f73ffffffffffffffffffffffffffffffffffffffff168373ffffffffffffffffffffffffffffffffffffffff1614158015611ca657508273ffffffffffffffffffffffffffffffffffffffff168173ffffffffffffffffffffffffffffffffffffffff1614155b8015611cb95750611cb78184610f67565b155b15611cfb57826040517fa9fbf51f000000000000000000000000000000000000000000000000000000008152600401611cf29190612200565b60405180910390fd5b8115611d5d57838573ffffffffffffffffffffffffffffffffffffffff168273ffffffffffffffffffffffffffffffffffffffff167f8c5be1e5ebec7d5bd14f71427d1e84f3dd0314c0f7b2291e5b200ac8c7c3b92560405160405180910390a45b505b8360045f8581526020019081526020015f205f6101000a81548173ffffffffffffffffffffffffffffffffffffffff021916908373ffffffffffffffffffffffffffffffffffffffff16021790555050505050565b611dbf838383611f41565b611e72575f73ffffffffffffffffffffffffffffffffffffffff168373ffffffffffffffffffffffffffffffffffffffff1603611e3357806040517f7e273289000000000000000000000000000000000000000000000000000000008152600401611e2a9190612630565b60405180910390fd5b81816040517f177e802f000000000000000000000000000000000000000000000000000000008152600401611e699291906132fc565b60405180910390fd5b505050565b60605f6001611e8584612001565b0190505f8167ffffffffffffffff811115611ea357611ea2612788565b5b6040519080825280601f01601f191660200182016040528015611ed55781602001600182028036833780820191505090505b5090505f82602083010190505b600115611f36578080600190039150507f3031323334353637383961626364656600000000000000000000000000000000600a86061a8153600a8581611f2b57611f2a613323565b5b0494505f8503611ee2575b819350505050919050565b5f5f73ffffffffffffffffffffffffffffffffffffffff168373ffffffffffffffffffffffffffffffffffffffff1614158015611ff857508273ffffffffffffffffffffffffffffffffffffffff168473ffffffffffffffffffffffffffffffffffffffff161480611fb95750611fb88484610f67565b5b80611ff757508273ffffffffffffffffffffffffffffffffffffffff16611fdf83611277565b73ffffffffffffffffffffffffffffffffffffffff16145b5b90509392505050565b5f5f5f90507a184f03e93ff9f4daa797ed6e38ed64bf6a1f010000000000000000831061205d577a184f03e93ff9f4daa797ed6e38ed64bf6a1f010000000000000000838161205357612052613323565b5b0492506040810190505b6d04ee2d6d415b85acef8100000000831061209a576d04ee2d6d415b85acef810000000083816120905761208f613323565b5b0492506020810190505b662386f26fc1000083106120c957662386f26fc1000083816120bf576120be613323565b5b0492506010810190505b6305f5e10083106120f2576305f5e10083816120e8576120e7613323565b5b0492506008810190505b612710831061211757612710838161210d5761210c613323565b5b0492506004810190505b6064831061213a57606483816121305761212f613323565b5b0492506002810190505b600a8310612149576001810190505b80915050919050565b5f604051905090565b5f5ffd5b5f5ffd5b5f819050919050565b61217581612163565b811461217f575f5ffd5b50565b5f813590506121908161216c565b92915050565b5f602082840312156121ab576121aa61215b565b5b5f6121b884828501612182565b91505092915050565b5f73ffffffffffffffffffffffffffffffffffffffff82169050919050565b5f6121ea826121c1565b9050919050565b6121fa816121e0565b82525050565b5f6020820190506122135f8301846121f1565b92915050565b5f7fffffffff0000000000000000000000000000000000000000000000000000000082169050919050565b61224d81612219565b8114612257575f5ffd5b50565b5f8135905061226881612244565b92915050565b5f602082840312156122835761228261215b565b5b5f6122908482850161225a565b91505092915050565b5f8115159050919050565b6122ad81612299565b82525050565b5f6020820190506122c65f8301846122a4565b92915050565b5f81519050919050565b5f82825260208201905092915050565b8281835e5f83830152505050565b5f601f19601f8301169050919050565b5f61230e826122cc565b61231881856122d6565b93506123288185602086016122e6565b612331816122f4565b840191505092915050565b5f6020820190508181035f8301526123548184612304565b905092915050565b612365816121e0565b811461236f575f5ffd5b50565b5f813590506123808161235c565b92915050565b5f5f6040838503121561239c5761239b61215b565b5b5f6123a985828601612372565b92505060206123ba85828601612182565b9150509250929050565b5f5ffd5b5f5ffd5b5f5ffd5b5f5f83601f8401126123e5576123e46123c4565b5b8235905067ffffffffffffffff811115612402576124016123c8565b5b60208301915083600182028301111561241e5761241d6123cc565b5b9250929050565b5f5f5f6040848603121561243c5761243b61215b565b5b5f61244986828701612182565b935050602084013567ffffffffffffffff81111561246a5761246961215f565b5b612476868287016123d0565b92509250509250925092565b5f5f5f606084860312156124995761249861215b565b5b5f6124a686828701612372565b93505060206124b786828701612372565b92505060406124c886828701612182565b9150509250925092565b5f5f83601f8401126124e7576124e66123c4565b5b8235905067ffffffffffffffff811115612504576125036123c8565b5b6020830191508360018202830111156125205761251f6123cc565b5b9250929050565b5f5f5f5f5f606086880312156125405761253f61215b565b5b5f61254d88828901612182565b955050602086013567ffffffffffffffff81111561256e5761256d61215f565b5b61257a888289016123d0565b9450945050604086013567ffffffffffffffff81111561259d5761259c61215f565b5b6125a9888289016124d2565b92509250509295509295909350565b5f5f604083850312156125ce576125cd61215b565b5b5f6125db85828601612182565b92505060206125ec85828601612372565b9150509250929050565b5f6020828403121561260b5761260a61215b565b5b5f61261884828501612372565b91505092915050565b61262a81612163565b82525050565b5f6020820190506126435f830184612621565b92915050565b5f5f83601f84011261265e5761265d6123c4565b5b8235905067ffffffffffffffff81111561267b5761267a6123c8565b5b602083019150836020820283011115612697576126966123cc565b5b9250929050565b5f5f5f5f604085870312156126b6576126b561215b565b5b5f85013567ffffffffffffffff8111156126d3576126d261215f565b5b6126df878288016123d0565b9450945050602085013567ffffffffffffffff8111156127025761270161215f565b5b61270e87828801612649565b925092505092959194509250565b61272581612299565b811461272f575f5ffd5b50565b5f813590506127408161271c565b92915050565b5f5f6040838503121561275c5761275b61215b565b5b5f61276985828601612372565b925050602061277a85828601612732565b9150509250929050565b5f5ffd5b7f4e487b71000000000000000000000000000000000000000000000000000000005f52604160045260245ffd5b6127be826122f4565b810181811067ffffffffffffffff821117156127dd576127dc612788565b5b80604052505050565b5f6127ef612152565b90506127fb82826127b5565b919050565b5f67ffffffffffffffff82111561281a57612819612788565b5b612823826122f4565b9050602081019050919050565b828183375f83830152505050565b5f61285061284b84612800565b6127e6565b90508281526020810184848401111561286c5761286b612784565b5b612877848285612830565b509392505050565b5f82601f830112612893576128926123c4565b5b81356128a384826020860161283e565b91505092915050565b5f5f5f5f608085870312156128c4576128c361215b565b5b5f6128d187828801612372565b94505060206128e287828801612372565b93505060406128f387828801612182565b925050606085013567ffffffffffffffff8111156129145761291361215f565b5b6129208782880161287f565b91505092959194509250565b5f81519050919050565b5f82825260208201905092915050565b5f6129508261292c565b61295a8185612936565b935061296a8185602086016122e6565b612973816122f4565b840191505092915050565b5f6020820190508181035f8301526129968184612946565b905092915050565b5f5f604083850312156129b4576129b361215b565b5b5f6129c185828601612372565b92505060206129d285828601612372565b9150509250929050565b5f5f602083850312156129f2576129f161215b565b5b5f83013567ffffffffffffffff811115612a0f57612a0e61215f565b5b612a1b858286016123d0565b92509250509250929050565b7f4e487b71000000000000000000000000000000000000000000000000000000005f52602260045260245ffd5b5f6002820490506001821680612a6b57607f821691505b602082108103612a7e57612a7d612a27565b5b50919050565b7f4e6f74206167656e74206f776e657200000000000000000000000000000000005f82015250565b5f612ab8600f836122d6565b9150612ac382612a84565b602082019050919050565b5f6020820190508181035f830152612ae581612aac565b9050919050565b5f612af783856122d6565b9350612b04838584612830565b612b0d836122f4565b840190509392505050565b5f6020820190508181035f830152612b31818486612aec565b90509392505050565b5f606082019050612b4d5f8301866121f1565b612b5a6020830185612621565b612b6760408301846121f1565b949350505050565b5f81905092915050565b5f612b848385612b6f565b9350612b91838584612830565b82840190509392505050565b5f612ba9828486612b79565b91508190509392505050565b7f43616e6e6f7420736574206167656e7457616c6c657420766961207365744d655f8201527f7461646174610000000000000000000000000000000000000000000000000000602082015250565b5f612c0f6026836122d6565b9150612c1a82612bb5565b604082019050919050565b5f6020820190508181035f830152612c3c81612c03565b9050919050565b7f4e487b71000000000000000000000000000000000000000000000000000000005f52601160045260245ffd5b5f612c7a82612163565b91507fffffffffffffffffffffffffffffffffffffffffffffffffffffffffffffffff8203612cac57612cab612c43565b5b600182019050919050565b7f4e487b71000000000000000000000000000000000000000000000000000000005f52603260045260245ffd5b5f5ffd5b5f5ffd5b5f5ffd5b5f82356001604003833603038112612d0b57612d0a612ce4565b5b80830191505092915050565b5f5f83356001602003843603038112612d3357612d32612ce4565b5b80840192508235915067ffffffffffffffff821115612d5557612d54612ce8565b5b602083019250600182023603831315612d7157612d70612cec565b5b509250929050565b5f5f83356001602003843603038112612d9557612d94612ce4565b5b80840192508235915067ffffffffffffffff821115612db757612db6612ce8565b5b602083019250600182023603831315612dd357612dd2612cec565b5b509250929050565b5f81905092915050565b5f612def826122cc565b612df98185612ddb565b9350612e098185602086016122e6565b80840191505092915050565b5f612e208285612de5565b9150612e2c8284612de5565b91508190509392505050565b5f612e438385612ddb565b9350612e50838584612830565b82840190509392505050565b5f612e68828486612e38565b91508190509392505050565b5f819050815f5260205f209050919050565b5f6020601f8301049050919050565b5f82821b905092915050565b5f60088302612ed07fffffffffffffffffffffffffffffffffffffffffffffffffffffffffffffffff82612e95565b612eda8683612e95565b95508019841693508086168417925050509392505050565b5f819050919050565b5f612f15612f10612f0b84612163565b612ef2565b612163565b9050919050565b5f819050919050565b612f2e83612efb565b612f42612f3a82612f1c565b848454612ea1565b825550505050565b5f5f905090565b612f59612f4a565b612f64818484612f25565b505050565b5f5b82811015612f8a57612f7f5f828401612f51565b600181019050612f6b565b505050565b601f821115612fdd5782821115612fdc57612fa981612e74565b612fb283612e86565b612fbb85612e86565b6020861015612fc8575f90505b808301612fd782840382612f69565b505050505b5b505050565b5f82821c905092915050565b5f612ffd5f1984600802612fe2565b1980831691505092915050565b5f6130158383612fee565b9150826002028217905092915050565b61302e826122cc565b67ffffffffffffffff81111561304757613046612788565b5b6130518254612a54565b61305c828285612f8f565b5f60209050601f83116001811461308d575f841561307b578287015190505b613085858261300a565b8655506130ec565b601f19841661309b86612e74565b5f5b828110156130c25784890151825560018201915060208501945060208101905061309d565b868310156130df57848901516130db601f891682612fee565b8355505b6001600288020188555050505b505050505050565b5f6130ff8284612de5565b915081905092915050565b5f819050815f5260205f209050919050565b601f82111561316a5782821115613169576131368161310a565b61313f83612e86565b61314885612e86565b6020861015613155575f90505b80830161316482840382612f69565b505050505b5b505050565b6131788261292c565b67ffffffffffffffff81111561319157613190612788565b5b61319b8254612a54565b6131a682828561311c565b5f60209050601f8311600181146131d7575f84156131c5578287015190505b6131cf858261300a565b865550613236565b601f1984166131e58661310a565b5f5b8281101561320c578489015182556001820191506020850194506020810190506131e7565b868310156132295784890151613225601f891682612fee565b8355505b6001600288020188555050505b505050505050565b5f6040820190508181035f8301526132568185612304565b9050818103602083015261326a8184612946565b90509392505050565b5f6080820190506132865f8301876121f1565b61329360208301866121f1565b6132a06040830185612621565b81810360608301526132b28184612946565b905095945050505050565b5f815190506132cb81612244565b92915050565b5f602082840312156132e6576132e561215b565b5b5f6132f3848285016132bd565b91505092915050565b5f60408201905061330f5f8301856121f1565b61331c6020830184612621565b9392505050565b7f4e487b71000000000000000000000000000000000000000000000000000000005f52601260045260245ffdfea264697066735822122051378f3c5839c9db372a39dc0d480836ea33602953636228d9c1d1ab0a65306664736f6c63430008210033","linkReferences":{}},"methodIdentifiers":{"approve(address,uint256)":"095ea7b3","balanceOf(address)":"70a08231","getAgentWallet(uint256)":"00339509","getApproved(uint256)":"081812fc","getMetadata(uint256,string)":"cb4799f2","isApprovedForAll(address,address)":"e985e9c5","name()":"06fdde03","ownerOf(uint256)":"6352211e","register(string)":"f2c298be","register(string,(string,bytes)[])":"8ea42286","safeTransferFrom(address,address,uint256)":"42842e0e","safeTransferFrom(address,address,uint256,bytes)":"b88d4fde","setAgentURI(uint256,string)":"0af28bd3","setAgentWallet(uint256,address)":"636d2f64","setApprovalForAll(address,bool)":"a22cb465","setMetadata(uint256,string,bytes)":"466648da","supportsInterface(bytes4)":"01ffc9a7","symbol()":"95d89b41","tokenURI(uint256)":"c87b56dd","transferFrom(address,address,uint256)":"23b872dd"},"id":0}